{
  "_format": "hh-sol-artifact-1",
  "contractName": "GameArena",
  "sourceName": "contracts/GameArena.sol",
  "abi": [
    {
      "inputs": [
        {
          "internalType": "address",
          "name": "_aqToken",
          "type": "address"
        },
        {
          "internalType": "address",
          "name": "_heroNft",
          "type": "address"
        }
      ],
      "stateMutability": "nonpayable",
      "type": "constructor"
    },
    {
      "inputs": [
        {
          "internalType": "address",
          "name": "owner",
          "type": "address"
        }
      ],
      "name": "OwnableInvalidOwner",
      "type": "error"
    },
    {
      "inputs": [
        {
          "internalType": "address",
          "name": "account",
          "type": "address"
        }
      ],
      "name": "OwnableUnauthorizedAccount",
      "type": "error"
    },
    {
      "anonymous": false,
      "inputs": [
        {
          "indexed": true,
          "internalType": "address",
          "name": "previousOwner",
          "type": "address"
        },
        {
          "indexed": true,
          "internalType": "address",
          "name": "newOwner",
          "type": "address"
        }
      ],
      "name": "OwnershipTransferred",
      "type": "event"
    },
    {
      "anonymous": false,
      "inputs": [
        {
          "indexed": true,
          "internalType": "address",
          "name": "user",
          "type": "address"
        },
        {
          "indexed": true,
          "internalType": "uint256",
          "name": "tokenId",
          "type": "uint256"
        },
        {
          "indexed": false,
          "internalType": "uint256",
          "name": "reward",
          "type": "uint256"
        },
        {
          "indexed": false,
          "internalType": "uint256",
          "name": "newLevel",
          "type": "uint256"
        }
      ],
      "name": "TrainingEnded",
      "type": "event"
    },
    {
      "anonymous": false,
      "inputs": [
        {
          "indexed": true,
          "internalType": "address",
          "name": "user",
          "type": "address"
        },
        {
          "indexed": true,
          "internalType": "uint256",
          "name": "tokenId",
          "type": "uint256"
        },
        {
          "indexed": false,
          "internalType": "uint256",
          "name": "startTime",
          "type": "uint256"
        }
      ],
      "name": "TrainingStarted",
      "type": "event"
    },
    {
      "inputs": [],
      "name": "REWARD_AMOUNT",
      "outputs": [
        {
          "internalType": "uint256",
          "name": "",
          "type": "uint256"
        }
      ],
      "stateMutability": "view",
      "type": "function"
    },
    {
      "inputs": [],
      "name": "TRAINING_DURATION",
      "outputs": [
        {
          "internalType": "uint256",
          "name": "",
          "type": "uint256"
        }
      ],
      "stateMutability": "view",
      "type": "function"
    },
    {
      "inputs": [
        {
          "internalType": "address",
          "name": "",
          "type": "address"
        }
      ],
      "name": "activeSessions",
      "outputs": [
        {
          "internalType": "uint256",
          "name": "tokenId",
          "type": "uint256"
        },
        {
          "internalType": "uint256",
          "name": "startTime",
          "type": "uint256"
        },
        {
          "internalType": "bool",
          "name": "isTraining",
          "type": "bool"
        }
      ],
      "stateMutability": "view",
      "type": "function"
    },
    {
      "inputs": [],
      "name": "aqToken",
      "outputs": [
        {
          "internalType": "contract AQToken",
          "name": "",
          "type": "address"
        }
      ],
      "stateMutability": "view",
      "type": "function"
    },
    {
      "inputs": [],
      "name": "endTraining",
      "outputs": [],
      "stateMutability": "nonpayable",
      "type": "function"
    },
    {
      "inputs": [],
      "name": "heroNft",
      "outputs": [
        {
          "internalType": "contract HeroNFT",
          "name": "",
          "type": "address"
        }
      ],
      "stateMutability": "view",
      "type": "function"
    },
    {
      "inputs": [],
      "name": "owner",
      "outputs": [
        {
          "internalType": "address",
          "name": "",
          "type": "address"
        }
      ],
      "stateMutability": "view",
      "type": "function"
    },
    {
      "inputs": [],
      "name": "renounceOwnership",
      "outputs": [],
      "stateMutability": "nonpayable",
      "type": "function"
    },
    {
      "inputs": [
        {
          "internalType": "uint256",
          "name": "tokenId",
          "type": "uint256"
        }
      ],
      "name": "startTraining",
      "outputs": [],
      "stateMutability": "nonpayable",
      "type": "function"
    },
    {
      "inputs": [
        {
          "internalType": "address",
          "name": "newOwner",
          "type": "address"
        }
      ],
      "name": "transferOwnership",
      "outputs": [],
      "stateMutability": "nonpayable",
      "type": "function"
    }
  ],
  "bytecode": "0x608060405234801562000010575f80fd5b50604051620015cc380380620015cc83398181016040528101906200003691906200026a565b335f73ffffffffffffffffffffffffffffffffffffffff168173ffffffffffffffffffffffffffffffffffffffff1603620000aa575f6040517f1e4fbdf7000000000000000000000000000000000000000000000000000000008152600401620000a19190620002c0565b60405180910390fd5b620000bb816200014460201b60201c565b508160015f6101000a81548173ffffffffffffffffffffffffffffffffffffffff021916908373ffffffffffffffffffffffffffffffffffffffff1602179055508060025f6101000a81548173ffffffffffffffffffffffffffffffffffffffff021916908373ffffffffffffffffffffffffffffffffffffffff1602179055505050620002db565b5f805f9054906101000a900473ffffffffffffffffffffffffffffffffffffffff169050815f806101000a81548173ffffffffffffffffffffffffffffffffffffffff021916908373ffffffffffffffffffffffffffffffffffffffff1602179055508173ffffffffffffffffffffffffffffffffffffffff168173ffffffffffffffffffffffffffffffffffffffff167f8be0079c531659141344cd1fd0a4f28419497f9722a3daafe3b4186f6b6457e060405160405180910390a35050565b5f80fd5b5f73ffffffffffffffffffffffffffffffffffffffff82169050919050565b5f620002348262000209565b9050919050565b620002468162000228565b811462000251575f80fd5b50565b5f8151905062000264816200023b565b92915050565b5f806040838503121562000283576200028262000205565b5b5f620002928582860162000254565b9250506020620002a58582860162000254565b9150509250929050565b620002ba8162000228565b82525050565b5f602082019050620002d55f830184620002af565b92915050565b6112e380620002e95f395ff3fe608060405234801561000f575f80fd5b506004361061009c575f3560e01c80639bdec822116100645780639bdec82214610136578063cf84944214610152578063dcb2072d14610170578063ed3e05131461018e578063f2fde38b146101985761009c565b80631cdddaa5146100a057806323ef2936146100be578063715018a6146100f05780638da5cb5b146100fa578063967f083e14610118575b5f80fd5b6100a86101b4565b6040516100b59190610c3c565b60405180910390f35b6100d860048036038101906100d39190610c9d565b6101d9565b6040516100e793929190610cfa565b60405180910390f35b6100f861020b565b005b61010261021e565b60405161010f9190610d3e565b60405180910390f35b610120610245565b60405161012d9190610d57565b60405180910390f35b610150600480360381019061014b9190610d9a565b61024a565b005b61015a610549565b6040516101679190610d57565b60405180910390f35b610178610556565b6040516101859190610de5565b60405180910390f35b61019661057b565b005b6101b260048036038101906101ad9190610c9d565b6109ef565b005b60015f9054906101000a900473ffffffffffffffffffffffffffffffffffffffff1681565b6003602052805f5260405f205f91509050805f015490806001015490806002015f9054906101000a900460ff16905083565b610213610a73565b61021c5f610afa565b565b5f805f9054906101000a900473ffffffffffffffffffffffffffffffffffffffff16905090565b603c81565b3373ffffffffffffffffffffffffffffffffffffffff1660025f9054906101000a900473ffffffffffffffffffffffffffffffffffffffff1673ffffffffffffffffffffffffffffffffffffffff16636352211e836040518263ffffffff1660e01b81526004016102bb9190610d57565b602060405180830381865afa1580156102d6573d5f803e3d5ffd5b505050506040513d601f19601f820116820180604052508101906102fa9190610e12565b73ffffffffffffffffffffffffffffffffffffffff1614610350576040517f08c379a000000000000000000000000000000000000000000000000000000000815260040161034790610e97565b60405180910390fd5b60035f3373ffffffffffffffffffffffffffffffffffffffff1673ffffffffffffffffffffffffffffffffffffffff1681526020019081526020015f206002015f9054906101000a900460ff16156103dd576040517f08c379a00000000000000000000000000000000000000000000000000000000081526004016103d490610eff565b60405180910390fd5b60025f9054906101000a900473ffffffffffffffffffffffffffffffffffffffff1673ffffffffffffffffffffffffffffffffffffffff166323b872dd3330846040518463ffffffff1660e01b815260040161043b93929190610f1d565b5f604051808303815f87803b158015610452575f80fd5b505af1158015610464573d5f803e3d5ffd5b5050505060405180606001604052808281526020014281526020016001151581525060035f3373ffffffffffffffffffffffffffffffffffffffff1673ffffffffffffffffffffffffffffffffffffffff1681526020019081526020015f205f820151815f0155602082015181600101556040820151816002015f6101000a81548160ff021916908315150217905550905050803373ffffffffffffffffffffffffffffffffffffffff167f772078f4b542b2a6b2ba7db64567b47ae7ec82d43838c4dd8be61fe7a81786464260405161053e9190610d57565b60405180910390a350565b68056bc75e2d6310000081565b60025f9054906101000a900473ffffffffffffffffffffffffffffffffffffffff1681565b5f60035f3373ffffffffffffffffffffffffffffffffffffffff1673ffffffffffffffffffffffffffffffffffffffff1681526020019081526020015f206040518060600160405290815f820154815260200160018201548152602001600282015f9054906101000a900460ff16151515158152505090508060400151610637576040517f08c379a000000000000000000000000000000000000000000000000000000000815260040161062e90610fc2565b60405180910390fd5b603c8160200151610648919061100d565b42101561068a576040517f08c379a0000000000000000000000000000000000000000000000000000000008152600401610681906110b0565b60405180910390fd5b60035f3373ffffffffffffffffffffffffffffffffffffffff1673ffffffffffffffffffffffffffffffffffffffff1681526020019081526020015f205f8082015f9055600182015f9055600282015f6101000a81549060ff021916905550505f60025f9054906101000a900473ffffffffffffffffffffffffffffffffffffffff1673ffffffffffffffffffffffffffffffffffffffff1663835a4398835f01516040518263ffffffff1660e01b81526004016107489190610d57565b608060405180830381865afa158015610763573d5f803e3d5ffd5b505050506040513d601f19601f8201168201806040525081019061078791906111e3565b90505f6001826040015161079b919061100d565b90505f6005835f01516107ae919061100d565b90505f600584602001516107c2919061100d565b90505f606485606001516107d6919061100d565b905060025f9054906101000a900473ffffffffffffffffffffffffffffffffffffffff1673ffffffffffffffffffffffffffffffffffffffff166370b5e59d875f0151858588866040518663ffffffff1660e01b815260040161083d95949392919061120e565b5f604051808303815f87803b158015610854575f80fd5b505af1158015610866573d5f803e3d5ffd5b5050505060015f9054906101000a900473ffffffffffffffffffffffffffffffffffffffff1673ffffffffffffffffffffffffffffffffffffffff166340c10f193368056bc75e2d631000006040518363ffffffff1660e01b81526004016108cf92919061125f565b5f604051808303815f87803b1580156108e6575f80fd5b505af11580156108f8573d5f803e3d5ffd5b5050505060025f9054906101000a900473ffffffffffffffffffffffffffffffffffffffff1673ffffffffffffffffffffffffffffffffffffffff166323b872dd3033895f01516040518463ffffffff1660e01b815260040161095d93929190610f1d565b5f604051808303815f87803b158015610974575f80fd5b505af1158015610986573d5f803e3d5ffd5b50505050855f01513373ffffffffffffffffffffffffffffffffffffffff167fd5efc2a6cbcf558ab5c72e368a3eaf5f560d59c830dc94744179ed4d90323e6768056bc75e2d63100000876040516109df929190611286565b60405180910390a3505050505050565b6109f7610a73565b5f73ffffffffffffffffffffffffffffffffffffffff168173ffffffffffffffffffffffffffffffffffffffff1603610a67575f6040517f1e4fbdf7000000000000000000000000000000000000000000000000000000008152600401610a5e9190610d3e565b60405180910390fd5b610a7081610afa565b50565b610a7b610bbb565b73ffffffffffffffffffffffffffffffffffffffff16610a9961021e565b73ffffffffffffffffffffffffffffffffffffffff1614610af857610abc610bbb565b6040517f118cdaa7000000000000000000000000000000000000000000000000000000008152600401610aef9190610d3e565b60405180910390fd5b565b5f805f9054906101000a900473ffffffffffffffffffffffffffffffffffffffff169050815f806101000a81548173ffffffffffffffffffffffffffffffffffffffff021916908373ffffffffffffffffffffffffffffffffffffffff1602179055508173ffffffffffffffffffffffffffffffffffffffff168173ffffffffffffffffffffffffffffffffffffffff167f8be0079c531659141344cd1fd0a4f28419497f9722a3daafe3b4186f6b6457e060405160405180910390a35050565b5f33905090565b5f73ffffffffffffffffffffffffffffffffffffffff82169050919050565b5f819050919050565b5f610c04610bff610bfa84610bc2565b610be1565b610bc2565b9050919050565b5f610c1582610bea565b9050919050565b5f610c2682610c0b565b9050919050565b610c3681610c1c565b82525050565b5f602082019050610c4f5f830184610c2d565b92915050565b5f604051905090565b5f80fd5b5f610c6c82610bc2565b9050919050565b610c7c81610c62565b8114610c86575f80fd5b50565b5f81359050610c9781610c73565b92915050565b5f60208284031215610cb257610cb1610c5e565b5b5f610cbf84828501610c89565b91505092915050565b5f819050919050565b610cda81610cc8565b82525050565b5f8115159050919050565b610cf481610ce0565b82525050565b5f606082019050610d0d5f830186610cd1565b610d1a6020830185610cd1565b610d276040830184610ceb565b949350505050565b610d3881610c62565b82525050565b5f602082019050610d515f830184610d2f565b92915050565b5f602082019050610d6a5f830184610cd1565b92915050565b610d7981610cc8565b8114610d83575f80fd5b50565b5f81359050610d9481610d70565b92915050565b5f60208284031215610daf57610dae610c5e565b5b5f610dbc84828501610d86565b91505092915050565b5f610dcf82610c0b565b9050919050565b610ddf81610dc5565b82525050565b5f602082019050610df85f830184610dd6565b92915050565b5f81519050610e0c81610c73565b92915050565b5f60208284031215610e2757610e26610c5e565b5b5f610e3484828501610dfe565b91505092915050565b5f82825260208201905092915050565b7f4e6f206572657320656c206475656e6f2064652065737465204865726f6500005f82015250565b5f610e81601e83610e3d565b9150610e8c82610e4d565b602082019050919050565b5f6020820190508181035f830152610eae81610e75565b9050919050565b7f5961207469656e657320756e206865726f6520656e7472656e616e646f0000005f82015250565b5f610ee9601d83610e3d565b9150610ef482610eb5565b602082019050919050565b5f6020820190508181035f830152610f1681610edd565b9050919050565b5f606082019050610f305f830186610d2f565b610f3d6020830185610d2f565b610f4a6040830184610cd1565b949350505050565b7f4e6f207469656e657320756e20656e7472656e616d69656e746f2061637469765f8201527f6f00000000000000000000000000000000000000000000000000000000000000602082015250565b5f610fac602183610e3d565b9150610fb782610f52565b604082019050919050565b5f6020820190508181035f830152610fd981610fa0565b9050919050565b7f4e487b71000000000000000000000000000000000000000000000000000000005f52601160045260245ffd5b5f61101782610cc8565b915061102283610cc8565b925082820190508082111561103a57611039610fe0565b5b92915050565b7f456c20656e7472656e616d69656e746f2061756e206e6f206861207465726d695f8201527f6e61646f00000000000000000000000000000000000000000000000000000000602082015250565b5f61109a602483610e3d565b91506110a582611040565b604082019050919050565b5f6020820190508181035f8301526110c78161108e565b9050919050565b5f80fd5b5f601f19601f8301169050919050565b7f4e487b71000000000000000000000000000000000000000000000000000000005f52604160045260245ffd5b611118826110d2565b810181811067ffffffffffffffff82111715611137576111366110e2565b5b80604052505050565b5f611149610c55565b9050611155828261110f565b919050565b5f8151905061116881610d70565b92915050565b5f60808284031215611183576111826110ce565b5b61118d6080611140565b90505f61119c8482850161115a565b5f8301525060206111af8482850161115a565b60208301525060406111c38482850161115a565b60408301525060606111d78482850161115a565b60608301525092915050565b5f608082840312156111f8576111f7610c5e565b5b5f6112058482850161116e565b91505092915050565b5f60a0820190506112215f830188610cd1565b61122e6020830187610cd1565b61123b6040830186610cd1565b6112486060830185610cd1565b6112556080830184610cd1565b9695505050505050565b5f6040820190506112725f830185610d2f565b61127f6020830184610cd1565b9392505050565b5f6040820190506112995f830185610cd1565b6112a66020830184610cd1565b939250505056fea26469706673582212208dfcde756d4aa45b3c2ba272eacea6ac30c467784b490bec20ab08d9665063fe64736f6c63430008180033",
  "linkReferences": {},
  "deployedLinkReferences": {}
}