{"abi":[{"type":"constructor","inputs":[],"stateMutability":"nonpayable"},{"type":"function","name":"MAX_SUPPLY","inputs":[],"outputs":[{"name":"","type":"uint256","internalType":"uint256"}],"stateMutability":"view"},{"type":"function","name":"MINT_COST","inputs":[],"outputs":[{"name":"","type":"uint256","internalType":"uint256"}],"stateMutability":"view"},{"type":"function","name":"TRAIN_COOLDOWN","inputs":[],"outputs":[{"name":"","type":"uint256","internalType":"uint256"}],"stateMutability":"view"},{"type":"function","name":"approve","inputs":[{"name":"to","type":"address","internalType":"address"},{"name":"tokenId","type":"uint256","internalType":"uint256"}],"outputs":[],"stateMutability":"nonpayable"},{"type":"function","name":"balanceOf","inputs":[{"name":"owner","type":"address","internalType":"address"}],"outputs":[{"name":"","type":"uint256","internalType":"uint256"}],"stateMutability":"view"},{"type":"function","name":"entrenarHeroe","inputs":[{"name":"tokenId","type":"uint256","internalType":"uint256"}],"outputs":[],"stateMutability":"nonpayable"},{"type":"function","name":"getApproved","inputs":[{"name":"tokenId","type":"uint256","internalType":"uint256"}],"outputs":[{"name":"","type":"address","internalType":"address"}],"stateMutability":"view"},{"type":"function","name":"getHeroStats","inputs":[{"name":"tokenId","type":"uint256","internalType":"uint256"}],"outputs":[{"name":"","type":"tuple","internalType":"struct AvaxQuest.HeroStats","components":[{"name":"name","type":"string","internalType":"string"},{"name":"heroClass","type":"uint8","internalType":"enum AvaxQuest.HeroClass"},{"name":"rarity","type":"uint8","internalType":"enum AvaxQuest.HeroRarity"},{"name":"exp","type":"uint256","internalType":"uint256"},{"name":"level","type":"uint256","internalType":"uint256"},{"name":"attack","type":"uint256","internalType":"uint256"},{"name":"defense","type":"uint256","internalType":"uint256"},{"name":"lastTrainedAt","type":"uint256","internalType":"uint256"}]}],"stateMutability":"view"},{"type":"function","name":"heroes","inputs":[{"name":"","type":"uint256","internalType":"uint256"}],"outputs":[{"name":"name","type":"string","internalType":"string"},{"name":"heroClass","type":"uint8","internalType":"enum AvaxQuest.HeroClass"},{"name":"rarity","type":"uint8","internalType":"enum AvaxQuest.HeroRarity"},{"name":"exp","type":"uint256","internalType":"uint256"},{"name":"level","type":"uint256","internalType":"uint256"},{"name":"attack","type":"uint256","internalType":"uint256"},{"name":"defense","type":"uint256","internalType":"uint256"},{"name":"lastTrainedAt","type":"uint256","internalType":"uint256"}],"stateMutability":"view"},{"type":"function","name":"isApprovedForAll","inputs":[{"name":"owner","type":"address","internalType":"address"},{"name":"operator","type":"address","internalType":"address"}],"outputs":[{"name":"","type":"bool","internalType":"bool"}],"stateMutability":"view"},{"type":"function","name":"mintHero","inputs":[{"name":"_name","type":"string","internalType":"string"},{"name":"_class","type":"uint8","internalType":"enum AvaxQuest.HeroClass"}],"outputs":[],"stateMutability":"payable"},{"type":"function","name":"name","inputs":[],"outputs":[{"name":"","type":"string","internalType":"string"}],"stateMutability":"view"},{"type":"function","name":"owner","inputs":[],"outputs":[{"name":"","type":"address","internalType":"address"}],"stateMutability":"view"},{"type":"function","name":"ownerOf","inputs":[{"name":"tokenId","type":"uint256","internalType":"uint256"}],"outputs":[{"name":"","type":"address","internalType":"address"}],"stateMutability":"view"},{"type":"function","name":"renounceOwnership","inputs":[],"outputs":[],"stateMutability":"nonpayable"},{"type":"function","name":"safeTransferFrom","inputs":[{"name":"from","type":"address","internalType":"address"},{"name":"to","type":"address","internalType":"address"},{"name":"tokenId","type":"uint256","internalType":"uint256"}],"outputs":[],"stateMutability":"nonpayable"},{"type":"function","name":"safeTransferFrom","inputs":[{"name":"from","type":"address","internalType":"address"},{"name":"to","type":"address","internalType":"address"},{"name":"tokenId","type":"uint256","internalType":"uint256"},{"name":"data","type":"bytes","internalType":"bytes"}],"outputs":[],"stateMutability":"nonpayable"},{"type":"function","name":"setApprovalForAll","inputs":[{"name":"operator","type":"address","internalType":"address"},{"name":"approved","type":"bool","internalType":"bool"}],"outputs":[],"stateMutability":"nonpayable"},{"type":"function","name":"supportsInterface","inputs":[{"name":"interfaceId","type":"bytes4","internalType":"bytes4"}],"outputs":[{"name":"","type":"bool","internalType":"bool"}],"stateMutability":"view"},{"type":"function","name":"symbol","inputs":[],"outputs":[{"name":"","type":"string","internalType":"string"}],"stateMutability":"view"},{"type":"function","name":"tokenURI","inputs":[{"name":"tokenId","type":"uint256","internalType":"uint256"}],"outputs":[{"name":"","type":"string","internalType":"string"}],"stateMutability":"view"},{"type":"function","name":"transferFrom","inputs":[{"name":"from","type":"address","internalType":"address"},{"name":"to","type":"address","internalType":"address"},{"name":"tokenId","type":"uint256","internalType":"uint256"}],"outputs":[],"stateMutability":"nonpayable"},{"type":"function","name":"transferOwnership","inputs":[{"name":"newOwner","type":"address","internalType":"address"}],"outputs":[],"stateMutability":"nonpayable"},{"type":"function","name":"withdrawBalance","inputs":[],"outputs":[],"stateMutability":"nonpayable"},{"type":"event","name":"Approval","inputs":[{"name":"owner","type":"address","indexed":true,"internalType":"address"},{"name":"approved","type":"address","indexed":true,"internalType":"address"},{"name":"tokenId","type":"uint256","indexed":true,"internalType":"uint256"}],"anonymous":false},{"type":"event","name":"ApprovalForAll","inputs":[{"name":"owner","type":"address","indexed":true,"internalType":"address"},{"name":"operator","type":"address","indexed":true,"internalType":"address"},{"name":"approved","type":"bool","indexed":false,"internalType":"bool"}],"anonymous":false},{"type":"event","name":"OwnershipTransferred","inputs":[{"name":"previousOwner","type":"address","indexed":true,"internalType":"address"},{"name":"newOwner","type":"address","indexed":true,"internalType":"address"}],"anonymous":false},{"type":"event","name":"Transfer","inputs":[{"name":"from","type":"address","indexed":true,"internalType":"address"},{"name":"to","type":"address","indexed":true,"internalType":"address"},{"name":"tokenId","type":"uint256","indexed":true,"internalType":"uint256"}],"anonymous":false},{"type":"error","name":"ERC721IncorrectOwner","inputs":[{"name":"sender","type":"address","internalType":"address"},{"name":"tokenId","type":"uint256","internalType":"uint256"},{"name":"owner","type":"address","internalType":"address"}]},{"type":"error","name":"ERC721InsufficientApproval","inputs":[{"name":"operator","type":"address","internalType":"address"},{"name":"tokenId","type":"uint256","internalType":"uint256"}]},{"type":"error","name":"ERC721InvalidApprover","inputs":[{"name":"approver","type":"address","internalType":"address"}]},{"type":"error","name":"ERC721InvalidOperator","inputs":[{"name":"operator","type":"address","internalType":"address"}]},{"type":"error","name":"ERC721InvalidOwner","inputs":[{"name":"owner","type":"address","internalType":"address"}]},{"type":"error","name":"ERC721InvalidReceiver","inputs":[{"name":"receiver","type":"address","internalType":"address"}]},{"type":"error","name":"ERC721InvalidSender","inputs":[{"name":"sender","type":"address","internalType":"address"}]},{"type":"error","name":"ERC721NonexistentToken","inputs":[{"name":"tokenId","type":"uint256","internalType":"uint256"}]},{"type":"error","name":"OwnableInvalidOwner","inputs":[{"name":"owner","type":"address","internalType":"address"}]},{"type":"error","name":"OwnableUnauthorizedAccount","inputs":[{"name":"account","type":"address","internalType":"address"}]}],"bytecode":{"object":"0x608060405234801561000f575f5ffd5b50336040518060400160405280600f81526020017f41564158205175657374204865726f00000000000000000000000000000000008152506040518060400160405280600381526020017f4151480000000000000000000000000000000000000000000000000000000000815250815f908161008b9190610434565b50806001908161009b9190610434565b5050505f73ffffffffffffffffffffffffffffffffffffffff168173ffffffffffffffffffffffffffffffffffffffff160361010e575f6040517f1e4fbdf70000000000000000000000000000000000000000000000000000000081526004016101059190610542565b60405180910390fd5b61011d8161012360201b60201c565b5061055b565b5f60065f9054906101000a900473ffffffffffffffffffffffffffffffffffffffff1690508160065f6101000a81548173ffffffffffffffffffffffffffffffffffffffff021916908373ffffffffffffffffffffffffffffffffffffffff1602179055508173ffffffffffffffffffffffffffffffffffffffff168173ffffffffffffffffffffffffffffffffffffffff167f8be0079c531659141344cd1fd0a4f28419497f9722a3daafe3b4186f6b6457e060405160405180910390a35050565b5f81519050919050565b7f4e487b71000000000000000000000000000000000000000000000000000000005f52604160045260245ffd5b7f4e487b71000000000000000000000000000000000000000000000000000000005f52602260045260245ffd5b5f600282049050600182168061026157607f821691505b6020821081036102745761027361021d565b5b50919050565b5f819050815f5260205f209050919050565b5f6020601f8301049050919050565b5f82821b905092915050565b5f600883026102d67fffffffffffffffffffffffffffffffffffffffffffffffffffffffffffffffff8261029b565b6102e0868361029b565b95508019841693508086168417925050509392505050565b5f819050919050565b5f819050919050565b5f61032461031f61031a846102f8565b610301565b6102f8565b9050919050565b5f819050919050565b61033d8361030a565b6103516103498261032b565b8484546102a7565b825550505050565b5f5f905090565b610368610359565b610373818484610334565b505050565b5f5b828110156103995761038e5f828401610360565b60018101905061037a565b505050565b601f8211156103ec57828211156103eb576103b88161027a565b6103c18361028c565b6103ca8561028c565b60208610156103d7575f90505b8083016103e682840382610378565b505050505b5b505050565b5f82821c905092915050565b5f61040c5f19846008026103f1565b1980831691505092915050565b5f61042483836103fd565b9150826002028217905092915050565b61043d826101e6565b67ffffffffffffffff811115610456576104556101f0565b5b610460825461024a565b61046b82828561039e565b5f60209050601f83116001811461049c575f841561048a578287015190505b6104948582610419565b8655506104fb565b601f1984166104aa8661027a565b5f5b828110156104d1578489015182556001820191506020850194506020810190506104ac565b868310156104ee57848901516104ea601f8916826103fd565b8355505b6001600288020188555050505b505050505050565b5f73ffffffffffffffffffffffffffffffffffffffff82169050919050565b5f61052c82610503565b9050919050565b61053c81610522565b82525050565b5f6020820190506105555f830184610533565b92915050565b6136f9806105685f395ff3fe60806040526004361061014a575f3560e01c8063715018a6116100b5578063b88d4fde1161006e578063b88d4fde14610483578063c662e481146104ab578063c87b56dd146104d5578063debbac2314610511578063e985e9c51461052d578063f2fde38b146105695761014a565b8063715018a614610372578063835a4398146103885780638da5cb5b146103c457806395d89b41146103ee578063a22cb46514610418578063a8d4a03b146104405761014a565b8063318617fd11610107578063318617fd1461026a57806332cb6b0c1461029257806342842e0e146102bc5780635fd8c710146102e45780636352211e146102fa57806370a08231146103365761014a565b806301ffc9a71461014e57806306fdde031461018a578063081812fc146101b4578063095ea7b3146101f0578063108073e51461021857806323b872dd14610242575b5f5ffd5b348015610159575f5ffd5b50610174600480360381019061016f91906124e3565b610591565b6040516101819190612528565b60405180910390f35b348015610195575f5ffd5b5061019e610672565b6040516101ab91906125b1565b60405180910390f35b3480156101bf575f5ffd5b506101da60048036038101906101d59190612604565b610701565b6040516101e7919061266e565b60405180910390f35b3480156101fb575f5ffd5b50610216600480360381019061021191906126b1565b61071c565b005b348015610223575f5ffd5b5061022c610732565b60405161023991906126fe565b60405180910390f35b34801561024d575f5ffd5b5061026860048036038101906102639190612717565b610737565b005b348015610275575f5ffd5b50610290600480360381019061028b9190612604565b610836565b005b34801561029d575f5ffd5b506102a6610b6e565b6040516102b391906126fe565b60405180910390f35b3480156102c7575f5ffd5b506102e260048036038101906102dd9190612717565b610b74565b005b3480156102ef575f5ffd5b506102f8610b93565b005b348015610305575f5ffd5b50610320600480360381019061031b9190612604565b610c94565b60405161032d919061266e565b60405180910390f35b348015610341575f5ffd5b5061035c60048036038101906103579190612767565b610ca5565b60405161036991906126fe565b60405180910390f35b34801561037d575f5ffd5b50610386610d5b565b005b348015610393575f5ffd5b506103ae60048036038101906103a99190612604565b610d6e565b6040516103bb919061294f565b60405180910390f35b3480156103cf575f5ffd5b506103d8610eda565b6040516103e5919061266e565b60405180910390f35b3480156103f9575f5ffd5b50610402610f02565b60405161040f91906125b1565b60405180910390f35b348015610423575f5ffd5b5061043e60048036038101906104399190612999565b610f92565b005b34801561044b575f5ffd5b5061046660048036038101906104619190612604565b610fa8565b60405161047a9897969594939291906129f5565b60405180910390f35b34801561048e575f5ffd5b506104a960048036038101906104a49190612ba4565b61108b565b005b3480156104b6575f5ffd5b506104bf6110b0565b6040516104cc91906126fe565b60405180910390f35b3480156104e0575f5ffd5b506104fb60048036038101906104f69190612604565b6110bb565b60405161050891906125b1565b60405180910390f35b61052b60048036038101906105269190612ce5565b611121565b005b348015610538575f5ffd5b50610553600480360381019061054e9190612d3f565b61144f565b6040516105609190612528565b60405180910390f35b348015610574575f5ffd5b5061058f600480360381019061058a9190612767565b6114dd565b005b5f7f80ac58cd000000000000000000000000000000000000000000000000000000007bffffffffffffffffffffffffffffffffffffffffffffffffffffffff1916827bffffffffffffffffffffffffffffffffffffffffffffffffffffffff1916148061065b57507f5b5e139f000000000000000000000000000000000000000000000000000000007bffffffffffffffffffffffffffffffffffffffffffffffffffffffff1916827bffffffffffffffffffffffffffffffffffffffffffffffffffffffff1916145b8061066b575061066a82611561565b5b9050919050565b60605f805461068090612daa565b80601f01602080910402602001604051908101604052809291908181526020018280546106ac90612daa565b80156106f75780601f106106ce576101008083540402835291602001916106f7565b820191905f5260205f20905b8154815290600101906020018083116106da57829003601f168201915b5050505050905090565b5f61070b826115ca565b5061071582611650565b9050919050565b61072e8282610729611689565b611690565b5050565b603c81565b5f73ffffffffffffffffffffffffffffffffffffffff168273ffffffffffffffffffffffffffffffffffffffff16036107a7575f6040517f64a0ae9200000000000000000000000000000000000000000000000000000000815260040161079e919061266e565b60405180910390fd5b5f6107ba83836107b5611689565b6116a2565b90508373ffffffffffffffffffffffffffffffffffffffff168173ffffffffffffffffffffffffffffffffffffffff1614610830578382826040517f64283d7b00000000000000000000000000000000000000000000000000000000815260040161082793929190612dda565b60405180910390fd5b50505050565b3373ffffffffffffffffffffffffffffffffffffffff1661085682610c94565b73ffffffffffffffffffffffffffffffffffffffff16146108ac576040517f08c379a00000000000000000000000000000000000000000000000000000000081526004016108a390612e59565b60405180910390fd5b603c60085f8381526020019081526020015f20600601546108cd9190612ea4565b42101561090f576040517f08c379a000000000000000000000000000000000000000000000000000000000815260040161090690612f47565b60405180910390fd5b4260085f8381526020019081526020015f2060060181905550603260085f8381526020019081526020015f206002015f82825461094c9190612ea4565b92505081905550606460085f8381526020019081526020015f206002015410610b6b57606460085f8381526020019081526020015f206002015f8282546109939190612f65565b92505081905550600160085f8381526020019081526020015f206003015f8282546109be9190612ea4565b925050819055505f60028111156109d8576109d76127da565b5b60085f8381526020019081526020015f206001015f9054906101000a900460ff166002811115610a0b57610a0a6127da565b5b03610a6b57600260085f8381526020019081526020015f206004015f828254610a349190612ea4565b92505081905550600560085f8381526020019081526020015f206005015f828254610a5f9190612ea4565b92505081905550610b6a565b60016002811115610a7f57610a7e6127da565b5b60085f8381526020019081526020015f206001015f9054906101000a900460ff166002811115610ab257610ab16127da565b5b03610b1257600460085f8381526020019081526020015f206004015f828254610adb9190612ea4565b92505081905550600360085f8381526020019081526020015f206005015f828254610b069190612ea4565b92505081905550610b69565b600660085f8381526020019081526020015f206004015f828254610b369190612ea4565b92505081905550600160085f8381526020019081526020015f206005015f828254610b619190612ea4565b925050819055505b5b5b50565b61138881565b610b8e83838360405180602001604052805f81525061108b565b505050565b610b9b6118ad565b5f4790505f8111610be1576040517f08c379a0000000000000000000000000000000000000000000000000000000008152600401610bd890612fe2565b60405180910390fd5b5f610bea610eda565b73ffffffffffffffffffffffffffffffffffffffff1682604051610c0d9061302d565b5f6040518083038185875af1925050503d805f8114610c47576040519150601f19603f3d011682016040523d82523d5f602084013e610c4c565b606091505b5050905080610c90576040517f08c379a0000000000000000000000000000000000000000000000000000000008152600401610c879061308b565b60405180910390fd5b5050565b5f610c9e826115ca565b9050919050565b5f5f73ffffffffffffffffffffffffffffffffffffffff168273ffffffffffffffffffffffffffffffffffffffff1603610d16575f6040517f89c62b64000000000000000000000000000000000000000000000000000000008152600401610d0d919061266e565b60405180910390fd5b60035f8373ffffffffffffffffffffffffffffffffffffffff1673ffffffffffffffffffffffffffffffffffffffff1681526020019081526020015f20549050919050565b610d636118ad565b610d6c5f611934565b565b610d7661241b565b610d7f82610c94565b5060085f8381526020019081526020015f20604051806101000160405290815f82018054610dac90612daa565b80601f0160208091040260200160405190810160405280929190818152602001828054610dd890612daa565b8015610e235780601f10610dfa57610100808354040283529160200191610e23565b820191905f5260205f20905b815481529060010190602001808311610e0657829003601f168201915b50505050508152602001600182015f9054906101000a900460ff166002811115610e5057610e4f6127da565b5b6002811115610e6257610e616127da565b5b81526020016001820160019054906101000a900460ff166005811115610e8b57610e8a6127da565b5b6005811115610e9d57610e9c6127da565b5b8152602001600282015481526020016003820154815260200160048201548152602001600582015481526020016006820154815250509050919050565b5f60065f9054906101000a900473ffffffffffffffffffffffffffffffffffffffff16905090565b606060018054610f1190612daa565b80601f0160208091040260200160405190810160405280929190818152602001828054610f3d90612daa565b8015610f885780601f10610f5f57610100808354040283529160200191610f88565b820191905f5260205f20905b815481529060010190602001808311610f6b57829003601f168201915b5050505050905090565b610fa4610f9d611689565b83836119f7565b5050565b6008602052805f5260405f205f91509050805f018054610fc790612daa565b80601f0160208091040260200160405190810160405280929190818152602001828054610ff390612daa565b801561103e5780601f106110155761010080835404028352916020019161103e565b820191905f5260205f20905b81548152906001019060200180831161102157829003601f168201915b505050505090806001015f9054906101000a900460ff16908060010160019054906101000a900460ff16908060020154908060030154908060040154908060050154908060060154905088565b611096848484610737565b6110aa6110a1611689565b85858585611bd0565b50505050565b662386f26fc1000081565b60606110c6826115ca565b505f6110d0611d7c565b90505f8151116110ee5760405180602001604052805f815250611119565b806110f884611d92565b6040516020016111099291906130e3565b6040516020818303038152906040525b915050919050565b61138860075410611167576040517f08c379a000000000000000000000000000000000000000000000000000000000815260040161115e90613176565b60405180910390fd5b662386f26fc100003410156111b1576040517f08c379a00000000000000000000000000000000000000000000000000000000081526004016111a8906131de565b60405180910390fd5b5f60075f8154809291906111c4906131fc565b9190505590505f4233836040516020016111e0939291906132a8565b604051602081830303815290604052805190602001205f1c90505f600160648361120a9190613311565b6112149190612ea4565b90505f5f5f90506032831161122e575f91505f905061128f565b604b831161124357600191506005905061128e565b605883116112585760029150600c905061128d565b605f831161126d57600391506014905061128c565b606383116112825760049150601e905061128b565b60059150603290505b5b5b5b5b5f5f5f60028111156112a4576112a36127da565b5b8860028111156112b7576112b66127da565b5b036112c957600a91506014905061130c565b600160028111156112dd576112dc6127da565b5b8860028111156112f0576112ef6127da565b5b0361130257600f9150600a905061130b565b60149150600590505b5b6040518061010001604052808a8152602001896002811115611331576113306127da565b5b8152602001856005811115611349576113486127da565b5b81526020015f81526020016001815260200184846113679190612ea4565b815260200184836113789190612ea4565b81526020015f81525060085f8981526020019081526020015f205f820151815f0190816113a591906134f2565b506020820151816001015f6101000a81548160ff021916908360028111156113d0576113cf6127da565b5b021790555060408201518160010160016101000a81548160ff02191690836005811115611400576113ff6127da565b5b0217905550606082015181600201556080820151816003015560a0820151816004015560c0820151816005015560e082015181600601559050506114443388611e5c565b505050505050505050565b5f60055f8473ffffffffffffffffffffffffffffffffffffffff1673ffffffffffffffffffffffffffffffffffffffff1681526020019081526020015f205f8373ffffffffffffffffffffffffffffffffffffffff1673ffffffffffffffffffffffffffffffffffffffff1681526020019081526020015f205f9054906101000a900460ff16905092915050565b6114e56118ad565b5f73ffffffffffffffffffffffffffffffffffffffff168173ffffffffffffffffffffffffffffffffffffffff1603611555575f6040517f1e4fbdf700000000000000000000000000000000000000000000000000000000815260040161154c919061266e565b60405180910390fd5b61155e81611934565b50565b5f7f01ffc9a7000000000000000000000000000000000000000000000000000000007bffffffffffffffffffffffffffffffffffffffffffffffffffffffff1916827bffffffffffffffffffffffffffffffffffffffffffffffffffffffff1916149050919050565b5f5f6115d583611f4f565b90505f73ffffffffffffffffffffffffffffffffffffffff168173ffffffffffffffffffffffffffffffffffffffff160361164757826040517f7e27328900000000000000000000000000000000000000000000000000000000815260040161163e91906126fe565b60405180910390fd5b80915050919050565b5f60045f8381526020019081526020015f205f9054906101000a900473ffffffffffffffffffffffffffffffffffffffff169050919050565b5f33905090565b61169d8383836001611f88565b505050565b5f5f6116ad84611f4f565b90505f73ffffffffffffffffffffffffffffffffffffffff168373ffffffffffffffffffffffffffffffffffffffff16146116ee576116ed818486612147565b5b5f73ffffffffffffffffffffffffffffffffffffffff168173ffffffffffffffffffffffffffffffffffffffff16146117795761172d5f855f5f611f88565b600160035f8373ffffffffffffffffffffffffffffffffffffffff1673ffffffffffffffffffffffffffffffffffffffff1681526020019081526020015f205f82825403925050819055505b5f73ffffffffffffffffffffffffffffffffffffffff168573ffffffffffffffffffffffffffffffffffffffff16146117f857600160035f8773ffffffffffffffffffffffffffffffffffffffff1673ffffffffffffffffffffffffffffffffffffffff1681526020019081526020015f205f82825401925050819055505b8460025f8681526020019081526020015f205f6101000a81548173ffffffffffffffffffffffffffffffffffffffff021916908373ffffffffffffffffffffffffffffffffffffffff160217905550838573ffffffffffffffffffffffffffffffffffffffff168273ffffffffffffffffffffffffffffffffffffffff167fddf252ad1be2c89b69c2b068fc378daa952ba7f163c4a11628f55a4df523b3ef60405160405180910390a4809150509392505050565b6118b5611689565b73ffffffffffffffffffffffffffffffffffffffff166118d3610eda565b73ffffffffffffffffffffffffffffffffffffffff1614611932576118f6611689565b6040517f118cdaa7000000000000000000000000000000000000000000000000000000008152600401611929919061266e565b60405180910390fd5b565b5f60065f9054906101000a900473ffffffffffffffffffffffffffffffffffffffff1690508160065f6101000a81548173ffffffffffffffffffffffffffffffffffffffff021916908373ffffffffffffffffffffffffffffffffffffffff1602179055508173ffffffffffffffffffffffffffffffffffffffff168173ffffffffffffffffffffffffffffffffffffffff167f8be0079c531659141344cd1fd0a4f28419497f9722a3daafe3b4186f6b6457e060405160405180910390a35050565b5f73ffffffffffffffffffffffffffffffffffffffff168373ffffffffffffffffffffffffffffffffffffffff1603611a67575f6040517fa9fbf51f000000000000000000000000000000000000000000000000000000008152600401611a5e919061266e565b60405180910390fd5b5f73ffffffffffffffffffffffffffffffffffffffff168273ffffffffffffffffffffffffffffffffffffffff1603611ad757816040517f5b08ba18000000000000000000000000000000000000000000000000000000008152600401611ace919061266e565b60405180910390fd5b8060055f8573ffffffffffffffffffffffffffffffffffffffff1673ffffffffffffffffffffffffffffffffffffffff1681526020019081526020015f205f8473ffffffffffffffffffffffffffffffffffffffff1673ffffffffffffffffffffffffffffffffffffffff1681526020019081526020015f205f6101000a81548160ff0219169083151502179055508173ffffffffffffffffffffffffffffffffffffffff168373ffffffffffffffffffffffffffffffffffffffff167f17307eab39ab6107e8899845ad3d59bd9653f200f220920489ca2b5937696c3183604051611bc39190612528565b60405180910390a3505050565b5f8373ffffffffffffffffffffffffffffffffffffffff163b1115611d75578273ffffffffffffffffffffffffffffffffffffffff1663150b7a02868685856040518563ffffffff1660e01b8152600401611c2e9493929190613613565b6020604051808303815f875af1925050508015611c6957506040513d601f19601f82011682018060405250810190611c669190613671565b60015b611cea573d805f8114611c97576040519150601f19603f3d011682016040523d82523d5f602084013e611c9c565b606091505b505f815103611ce257836040517f64a0ae92000000000000000000000000000000000000000000000000000000008152600401611cd9919061266e565b60405180910390fd5b805160208201fd5b63150b7a0260e01b7bffffffffffffffffffffffffffffffffffffffffffffffffffffffff1916817bffffffffffffffffffffffffffffffffffffffffffffffffffffffff191614611d7357836040517f64a0ae92000000000000000000000000000000000000000000000000000000008152600401611d6a919061266e565b60405180910390fd5b505b5050505050565b606060405180602001604052805f815250905090565b60605f6001611da08461220a565b0190505f8167ffffffffffffffff811115611dbe57611dbd612a80565b5b6040519080825280601f01601f191660200182016040528015611df05781602001600182028036833780820191505090505b5090505f82602083010190505b600115611e51578080600190039150507f3031323334353637383961626364656600000000000000000000000000000000600a86061a8153600a8581611e4657611e456132e4565b5b0494505f8503611dfd575b819350505050919050565b5f73ffffffffffffffffffffffffffffffffffffffff168273ffffffffffffffffffffffffffffffffffffffff1603611ecc575f6040517f64a0ae92000000000000000000000000000000000000000000000000000000008152600401611ec3919061266e565b60405180910390fd5b5f611ed883835f6116a2565b90505f73ffffffffffffffffffffffffffffffffffffffff168173ffffffffffffffffffffffffffffffffffffffff1614611f4a575f6040517f73c6ac6e000000000000000000000000000000000000000000000000000000008152600401611f41919061266e565b60405180910390fd5b505050565b5f60025f8381526020019081526020015f205f9054906101000a900473ffffffffffffffffffffffffffffffffffffffff169050919050565b8080611fc057505f73ffffffffffffffffffffffffffffffffffffffff168273ffffffffffffffffffffffffffffffffffffffff1614155b156120f2575f611fcf846115ca565b90505f73ffffffffffffffffffffffffffffffffffffffff168373ffffffffffffffffffffffffffffffffffffffff161415801561203957508273ffffffffffffffffffffffffffffffffffffffff168173ffffffffffffffffffffffffffffffffffffffff1614155b801561204c575061204a818461144f565b155b1561208e57826040517fa9fbf51f000000000000000000000000000000000000000000000000000000008152600401612085919061266e565b60405180910390fd5b81156120f057838573ffffffffffffffffffffffffffffffffffffffff168273ffffffffffffffffffffffffffffffffffffffff167f8c5be1e5ebec7d5bd14f71427d1e84f3dd0314c0f7b2291e5b200ac8c7c3b92560405160405180910390a45b505b8360045f8581526020019081526020015f205f6101000a81548173ffffffffffffffffffffffffffffffffffffffff021916908373ffffffffffffffffffffffffffffffffffffffff16021790555050505050565b61215283838361235b565b612205575f73ffffffffffffffffffffffffffffffffffffffff168373ffffffffffffffffffffffffffffffffffffffff16036121c657806040517f7e2732890000000000000000000000000000000000000000000000000000000081526004016121bd91906126fe565b60405180910390fd5b81816040517f177e802f0000000000000000000000000000000000000000000000000000000081526004016121fc92919061369c565b60405180910390fd5b505050565b5f5f5f90507a184f03e93ff9f4daa797ed6e38ed64bf6a1f0100000000000000008310612266577a184f03e93ff9f4daa797ed6e38ed64bf6a1f010000000000000000838161225c5761225b6132e4565b5b0492506040810190505b6d04ee2d6d415b85acef810000000083106122a3576d04ee2d6d415b85acef81000000008381612299576122986132e4565b5b0492506020810190505b662386f26fc1000083106122d257662386f26fc1000083816122c8576122c76132e4565b5b0492506010810190505b6305f5e10083106122fb576305f5e10083816122f1576122f06132e4565b5b0492506008810190505b6127108310612320576127108381612316576123156132e4565b5b0492506004810190505b606483106123435760648381612339576123386132e4565b5b0492506002810190505b600a8310612352576001810190505b80915050919050565b5f5f73ffffffffffffffffffffffffffffffffffffffff168373ffffffffffffffffffffffffffffffffffffffff161415801561241257508273ffffffffffffffffffffffffffffffffffffffff168473ffffffffffffffffffffffffffffffffffffffff1614806123d357506123d2848461144f565b5b8061241157508273ffffffffffffffffffffffffffffffffffffffff166123f983611650565b73ffffffffffffffffffffffffffffffffffffffff16145b5b90509392505050565b604051806101000160405280606081526020015f6002811115612441576124406127da565b5b81526020015f6005811115612459576124586127da565b5b81526020015f81526020015f81526020015f81526020015f81526020015f81525090565b5f604051905090565b5f5ffd5b5f5ffd5b5f7fffffffff0000000000000000000000000000000000000000000000000000000082169050919050565b6124c28161248e565b81146124cc575f5ffd5b50565b5f813590506124dd816124b9565b92915050565b5f602082840312156124f8576124f7612486565b5b5f612505848285016124cf565b91505092915050565b5f8115159050919050565b6125228161250e565b82525050565b5f60208201905061253b5f830184612519565b92915050565b5f81519050919050565b5f82825260208201905092915050565b8281835e5f83830152505050565b5f601f19601f8301169050919050565b5f61258382612541565b61258d818561254b565b935061259d81856020860161255b565b6125a681612569565b840191505092915050565b5f6020820190508181035f8301526125c98184612579565b905092915050565b5f819050919050565b6125e3816125d1565b81146125ed575f5ffd5b50565b5f813590506125fe816125da565b92915050565b5f6020828403121561261957612618612486565b5b5f612626848285016125f0565b91505092915050565b5f73ffffffffffffffffffffffffffffffffffffffff82169050919050565b5f6126588261262f565b9050919050565b6126688161264e565b82525050565b5f6020820190506126815f83018461265f565b92915050565b6126908161264e565b811461269a575f5ffd5b50565b5f813590506126ab81612687565b92915050565b5f5f604083850312156126c7576126c6612486565b5b5f6126d48582860161269d565b92505060206126e5858286016125f0565b9150509250929050565b6126f8816125d1565b82525050565b5f6020820190506127115f8301846126ef565b92915050565b5f5f5f6060848603121561272e5761272d612486565b5b5f61273b8682870161269d565b935050602061274c8682870161269d565b925050604061275d868287016125f0565b9150509250925092565b5f6020828403121561277c5761277b612486565b5b5f6127898482850161269d565b91505092915050565b5f82825260208201905092915050565b5f6127ac82612541565b6127b68185612792565b93506127c681856020860161255b565b6127cf81612569565b840191505092915050565b7f4e487b71000000000000000000000000000000000000000000000000000000005f52602160045260245ffd5b60038110612818576128176127da565b5b50565b5f81905061282882612807565b919050565b5f6128378261281b565b9050919050565b6128478161282d565b82525050565b6006811061285e5761285d6127da565b5b50565b5f81905061286e8261284d565b919050565b5f61287d82612861565b9050919050565b61288d81612873565b82525050565b61289c816125d1565b82525050565b5f61010083015f8301518482035f8601526128bd82826127a2565b91505060208301516128d2602086018261283e565b5060408301516128e56040860182612884565b5060608301516128f86060860182612893565b50608083015161290b6080860182612893565b5060a083015161291e60a0860182612893565b5060c083015161293160c0860182612893565b5060e083015161294460e0860182612893565b508091505092915050565b5f6020820190508181035f83015261296781846128a2565b905092915050565b6129788161250e565b8114612982575f5ffd5b50565b5f813590506129938161296f565b92915050565b5f5f604083850312156129af576129ae612486565b5b5f6129bc8582860161269d565b92505060206129cd85828601612985565b9150509250929050565b6129e08161282d565b82525050565b6129ef81612873565b82525050565b5f610100820190508181035f830152612a0e818b612579565b9050612a1d602083018a6129d7565b612a2a60408301896129e6565b612a3760608301886126ef565b612a4460808301876126ef565b612a5160a08301866126ef565b612a5e60c08301856126ef565b612a6b60e08301846126ef565b9998505050505050505050565b5f5ffd5b5f5ffd5b7f4e487b71000000000000000000000000000000000000000000000000000000005f52604160045260245ffd5b612ab682612569565b810181811067ffffffffffffffff82111715612ad557612ad4612a80565b5b80604052505050565b5f612ae761247d565b9050612af38282612aad565b919050565b5f67ffffffffffffffff821115612b1257612b11612a80565b5b612b1b82612569565b9050602081019050919050565b828183375f83830152505050565b5f612b48612b4384612af8565b612ade565b905082815260208101848484011115612b6457612b63612a7c565b5b612b6f848285612b28565b509392505050565b5f82601f830112612b8b57612b8a612a78565b5b8135612b9b848260208601612b36565b91505092915050565b5f5f5f5f60808587031215612bbc57612bbb612486565b5b5f612bc98782880161269d565b9450506020612bda8782880161269d565b9350506040612beb878288016125f0565b925050606085013567ffffffffffffffff811115612c0c57612c0b61248a565b5b612c1887828801612b77565b91505092959194509250565b5f67ffffffffffffffff821115612c3e57612c3d612a80565b5b612c4782612569565b9050602081019050919050565b5f612c66612c6184612c24565b612ade565b905082815260208101848484011115612c8257612c81612a7c565b5b612c8d848285612b28565b509392505050565b5f82601f830112612ca957612ca8612a78565b5b8135612cb9848260208601612c54565b91505092915050565b60038110612cce575f5ffd5b50565b5f81359050612cdf81612cc2565b92915050565b5f5f60408385031215612cfb57612cfa612486565b5b5f83013567ffffffffffffffff811115612d1857612d1761248a565b5b612d2485828601612c95565b9250506020612d3585828601612cd1565b9150509250929050565b5f5f60408385031215612d5557612d54612486565b5b5f612d628582860161269d565b9250506020612d738582860161269d565b9150509250929050565b7f4e487b71000000000000000000000000000000000000000000000000000000005f52602260045260245ffd5b5f6002820490506001821680612dc157607f821691505b602082108103612dd457612dd3612d7d565b5b50919050565b5f606082019050612ded5f83018661265f565b612dfa60208301856126ef565b612e07604083018461265f565b949350505050565b7f4e6f206572657320656c206475656e6f2064656c206865726f650000000000005f82015250565b5f612e43601a8361254b565b9150612e4e82612e0f565b602082019050919050565b5f6020820190508181035f830152612e7081612e37565b9050919050565b7f4e487b71000000000000000000000000000000000000000000000000000000005f52601160045260245ffd5b5f612eae826125d1565b9150612eb9836125d1565b9250828201905080821115612ed157612ed0612e77565b5b92915050565b7f456c206865726f6520657374612063616e7361646f2e2045737065726120656c5f8201527f20636f6f6c646f776e2e00000000000000000000000000000000000000000000602082015250565b5f612f31602a8361254b565b9150612f3c82612ed7565b604082019050919050565b5f6020820190508181035f830152612f5e81612f25565b9050919050565b5f612f6f826125d1565b9150612f7a836125d1565b9250828203905081811115612f9257612f91612e77565b5b92915050565b7f4e6f206861792073616c646f20706172612072657469726172000000000000005f82015250565b5f612fcc60198361254b565b9150612fd782612f98565b602082019050919050565b5f6020820190508181035f830152612ff981612fc0565b9050919050565b5f81905092915050565b50565b5f6130185f83613000565b91506130238261300a565b5f82019050919050565b5f6130378261300d565b9150819050919050565b7f46616c6c6f20616c207265746972617220666f6e646f730000000000000000005f82015250565b5f61307560178361254b565b915061308082613041565b602082019050919050565b5f6020820190508181035f8301526130a281613069565b9050919050565b5f81905092915050565b5f6130bd82612541565b6130c781856130a9565b93506130d781856020860161255b565b80840191505092915050565b5f6130ee82856130b3565b91506130fa82846130b3565b91508190509392505050565b7f536520686120616c63616e7a61646f20656c2073756d696e697374726f206d615f8201527f78696d6f00000000000000000000000000000000000000000000000000000000602082015250565b5f61316060248361254b565b915061316b82613106565b604082019050919050565b5f6020820190508181035f83015261318d81613154565b9050919050565b7f457468657220696e737566696369656e74652070617261206d696e74656172005f82015250565b5f6131c8601f8361254b565b91506131d382613194565b602082019050919050565b5f6020820190508181035f8301526131f5816131bc565b9050919050565b5f613206826125d1565b91507fffffffffffffffffffffffffffffffffffffffffffffffffffffffffffffffff820361323857613237612e77565b5b600182019050919050565b5f819050919050565b61325d613258826125d1565b613243565b82525050565b5f8160601b9050919050565b5f61327982613263565b9050919050565b5f61328a8261326f565b9050919050565b6132a261329d8261264e565b613280565b82525050565b5f6132b3828661324c565b6020820191506132c38285613291565b6014820191506132d3828461324c565b602082019150819050949350505050565b7f4e487b71000000000000000000000000000000000000000000000000000000005f52601260045260245ffd5b5f61331b826125d1565b9150613326836125d1565b925082613336576133356132e4565b5b828206905092915050565b5f819050815f5260205f209050919050565b5f6020601f8301049050919050565b5f82821b905092915050565b5f6008830261339d7fffffffffffffffffffffffffffffffffffffffffffffffffffffffffffffffff82613362565b6133a78683613362565b95508019841693508086168417925050509392505050565b5f819050919050565b5f6133e26133dd6133d8846125d1565b6133bf565b6125d1565b9050919050565b5f819050919050565b6133fb836133c8565b61340f613407826133e9565b84845461336e565b825550505050565b5f5f905090565b613426613417565b6134318184846133f2565b505050565b5f5b828110156134575761344c5f82840161341e565b600181019050613438565b505050565b601f8211156134aa57828211156134a95761347681613341565b61347f83613353565b61348885613353565b6020861015613495575f90505b8083016134a482840382613436565b505050505b5b505050565b5f82821c905092915050565b5f6134ca5f19846008026134af565b1980831691505092915050565b5f6134e283836134bb565b9150826002028217905092915050565b6134fb82612541565b67ffffffffffffffff81111561351457613513612a80565b5b61351e8254612daa565b61352982828561345c565b5f60209050601f83116001811461355a575f8415613548578287015190505b61355285826134d7565b8655506135b9565b601f19841661356886613341565b5f5b8281101561358f5784890151825560018201915060208501945060208101905061356a565b868310156135ac57848901516135a8601f8916826134bb565b8355505b6001600288020188555050505b505050505050565b5f81519050919050565b5f82825260208201905092915050565b5f6135e5826135c1565b6135ef81856135cb565b93506135ff81856020860161255b565b61360881612569565b840191505092915050565b5f6080820190506136265f83018761265f565b613633602083018661265f565b61364060408301856126ef565b818103606083015261365281846135db565b905095945050505050565b5f8151905061366b816124b9565b92915050565b5f6020828403121561368657613685612486565b5b5f6136938482850161365d565b91505092915050565b5f6040820190506136af5f83018561265f565b6136bc60208301846126ef565b939250505056fea2646970667358221220a14f016b858c81384b096647d4368fa2248a85c1f1146d5c37795af4304e337364736f6c63430008210033","linkReferences":{}},"methodIdentifiers":{"MAX_SUPPLY()":"32cb6b0c","MINT_COST()":"c662e481","TRAIN_COOLDOWN()":"108073e5","approve(address,uint256)":"095ea7b3","balanceOf(address)":"70a08231","entrenarHeroe(uint256)":"318617fd","getApproved(uint256)":"081812fc","getHeroStats(uint256)":"835a4398","heroes(uint256)":"a8d4a03b","isApprovedForAll(address,address)":"e985e9c5","mintHero(string,uint8)":"debbac23","name()":"06fdde03","owner()":"8da5cb5b","ownerOf(uint256)":"6352211e","renounceOwnership()":"715018a6","safeTransferFrom(address,address,uint256)":"42842e0e","safeTransferFrom(address,address,uint256,bytes)":"b88d4fde","setApprovalForAll(address,bool)":"a22cb465","supportsInterface(bytes4)":"01ffc9a7","symbol()":"95d89b41","tokenURI(uint256)":"c87b56dd","transferFrom(address,address,uint256)":"23b872dd","transferOwnership(address)":"f2fde38b","withdrawBalance()":"5fd8c710"},"id":16}